{
  "_format": "hh-sol-artifact-1",
  "contractName": "Lancet",
  "sourceName": "contracts/lancet.sol",
  "abi": [
    {
      "anonymous": false,
      "inputs": [
        {
          "components": [
            {
              "internalType": "address payable",
              "name": "provider",
              "type": "address"
            },
            {
              "internalType": "address",
              "name": "buyer",
              "type": "address"
            },
            {
              "internalType": "uint256",
              "name": "amount",
              "type": "uint256"
            },
            {
              "internalType": "bool",
              "name": "complete",
              "type": "bool"
            }
          ],
          "indexed": false,
          "internalType": "struct Lancet.Job",
          "name": "job",
          "type": "tuple"
        },
        {
          "indexed": false,
          "internalType": "uint256",
          "name": "jobID_",
          "type": "uint256"
        }
      ],
      "name": "CancelJob",
      "type": "event"
    },
    {
      "anonymous": false,
      "inputs": [
        {
          "components": [
            {
              "internalType": "address payable",
              "name": "provider",
              "type": "address"
            },
            {
              "internalType": "address",
              "name": "buyer",
              "type": "address"
            },
            {
              "internalType": "uint256",
              "name": "amount",
              "type": "uint256"
            },
            {
              "internalType": "bool",
              "name": "complete",
              "type": "bool"
            }
          ],
          "indexed": false,
          "internalType": "struct Lancet.Job",
          "name": "job",
          "type": "tuple"
        },
        {
          "indexed": false,
          "internalType": "uint256",
          "name": "jobID",
          "type": "uint256"
        }
      ],
      "name": "JobComplete",
      "type": "event"
    },
    {
      "anonymous": false,
      "inputs": [
        {
          "components": [
            {
              "internalType": "address payable",
              "name": "provider",
              "type": "address"
            },
            {
              "internalType": "address",
              "name": "buyer",
              "type": "address"
            },
            {
              "internalType": "uint256",
              "name": "amount",
              "type": "uint256"
            },
            {
              "internalType": "bool",
              "name": "complete",
              "type": "bool"
            }
          ],
          "indexed": false,
          "internalType": "struct Lancet.Job",
          "name": "job",
          "type": "tuple"
        },
        {
          "indexed": false,
          "internalType": "uint256",
          "name": "jobID",
          "type": "uint256"
        }
      ],
      "name": "JobCreated",
      "type": "event"
    },
    {
      "inputs": [
        {
          "internalType": "uint256",
          "name": "jobID_",
          "type": "uint256"
        }
      ],
      "name": "cancelJob",
      "outputs": [],
      "stateMutability": "nonpayable",
      "type": "function"
    },
    {
      "inputs": [],
      "name": "contractBalance",
      "outputs": [
        {
          "internalType": "uint256",
          "name": "",
          "type": "uint256"
        }
      ],
      "stateMutability": "view",
      "type": "function"
    },
    {
      "inputs": [
        {
          "internalType": "address payable",
          "name": "provider_",
          "type": "address"
        },
        {
          "internalType": "address",
          "name": "buyer_",
          "type": "address"
        },
        {
          "internalType": "uint256",
          "name": "amount_",
          "type": "uint256"
        }
      ],
      "name": "createJob",
      "outputs": [],
      "stateMutability": "payable",
      "type": "function"
    },
    {
      "inputs": [
        {
          "internalType": "uint256",
          "name": "jobID_",
          "type": "uint256"
        },
        {
          "internalType": "address payable",
          "name": "emergancyReceiver_",
          "type": "address"
        }
      ],
      "name": "emergancyRelease",
      "outputs": [],
      "stateMutability": "nonpayable",
      "type": "function"
    },
    {
      "inputs": [
        {
          "internalType": "uint256",
          "name": "s_platformFee_",
          "type": "uint256"
        }
      ],
      "name": "initialize",
      "outputs": [],
      "stateMutability": "nonpayable",
      "type": "function"
    },
    {
      "inputs": [
        {
          "internalType": "uint256",
          "name": "",
          "type": "uint256"
        }
      ],
      "name": "jobs",
      "outputs": [
        {
          "internalType": "address payable",
          "name": "provider",
          "type": "address"
        },
        {
          "internalType": "address",
          "name": "buyer",
          "type": "address"
        },
        {
          "internalType": "uint256",
          "name": "amount",
          "type": "uint256"
        },
        {
          "internalType": "bool",
          "name": "complete",
          "type": "bool"
        }
      ],
      "stateMutability": "view",
      "type": "function"
    },
    {
      "inputs": [
        {
          "internalType": "uint256",
          "name": "jobID_",
          "type": "uint256"
        }
      ],
      "name": "releaseFunds",
      "outputs": [],
      "stateMutability": "nonpayable",
      "type": "function"
    },
    {
      "inputs": [],
      "name": "runningJobs",
      "outputs": [
        {
          "internalType": "uint256",
          "name": "",
          "type": "uint256"
        }
      ],
      "stateMutability": "view",
      "type": "function"
    },
    {
      "inputs": [],
      "name": "s_jobID",
      "outputs": [
        {
          "internalType": "uint256",
          "name": "",
          "type": "uint256"
        }
      ],
      "stateMutability": "view",
      "type": "function"
    },
    {
      "inputs": [],
      "name": "s_platformFee",
      "outputs": [
        {
          "internalType": "uint256",
          "name": "",
          "type": "uint256"
        }
      ],
      "stateMutability": "view",
      "type": "function"
    },
    {
      "inputs": [
        {
          "internalType": "uint256",
          "name": "platformFee_",
          "type": "uint256"
        }
      ],
      "name": "setPlatformFee",
      "outputs": [],
      "stateMutability": "nonpayable",
      "type": "function"
    },
    {
      "inputs": [
        {
          "internalType": "address payable",
          "name": "to",
          "type": "address"
        }
      ],
      "name": "withdraw",
      "outputs": [],
      "stateMutability": "nonpayable",
      "type": "function"
    }
  ],
  "bytecode": "0x608060405234801561001057600080fd5b506117b6806100206000396000f3fe6080604052600436106100a75760003560e01c806351cff8d91161006457806351cff8d9146101bd5780638b7afe2e146101e65780639ac45bd914610211578063bf0077ef1461023c578063dd809f7a14610258578063fe4b84df14610281576100a7565b806312e8e2c3146100ac578063180aedf3146100d55780631db2e2bc146101155780631dffa3dc1461014057806347602ae5146101695780634d68282f14610194575b600080fd5b3480156100b857600080fd5b506100d360048036038101906100ce9190610e76565b6102aa565b005b3480156100e157600080fd5b506100fc60048036038101906100f79190610e76565b610344565b60405161010c94939291906110d3565b60405180910390f35b34801561012157600080fd5b5061012a6103c1565b6040516101379190611221565b60405180910390f35b34801561014c57600080fd5b5061016760048036038101906101629190610e76565b6103c7565b005b34801561017557600080fd5b5061017e6105ce565b60405161018b9190611221565b60405180910390f35b3480156101a057600080fd5b506101bb60048036038101906101b69190610e76565b6105d4565b005b3480156101c957600080fd5b506101e460048036038101906101df9190610df6565b61085b565b005b3480156101f257600080fd5b506101fb6109f4565b6040516102089190611221565b60405180910390f35b34801561021d57600080fd5b506102266109fa565b6040516102339190611221565b60405180910390f35b61025660048036038101906102519190610e23565b610a00565b005b34801561026457600080fd5b5061027f600480360381019061027a9190610ea3565b610c54565b005b34801561028d57600080fd5b506102a860048036038101906102a39190610e76565b610d6c565b005b600460009054906101000a900473ffffffffffffffffffffffffffffffffffffffff1673ffffffffffffffffffffffffffffffffffffffff163373ffffffffffffffffffffffffffffffffffffffff161461033a576040517f08c379a000000000000000000000000000000000000000000000000000000000815260040161033190611158565b60405180910390fd5b8060038190555050565b60056020528060005260406000206000915090508060000160009054906101000a900473ffffffffffffffffffffffffffffffffffffffff16908060010160009054906101000a900473ffffffffffffffffffffffffffffffffffffffff16908060020154908060030160009054906101000a900460ff16905084565b60015481565b3373ffffffffffffffffffffffffffffffffffffffff166005600083815260200190815260200160002060010160009054906101000a900473ffffffffffffffffffffffffffffffffffffffff1673ffffffffffffffffffffffffffffffffffffffff16148061049857503373ffffffffffffffffffffffffffffffffffffffff166005600083815260200190815260200160002060000160009054906101000a900473ffffffffffffffffffffffffffffffffffffffff1673ffffffffffffffffffffffffffffffffffffffff16145b6104d7576040517f08c379a00000000000000000000000000000000000000000000000000000000081526004016104ce90611178565b60405180910390fd5b600015156005600083815260200190815260200160002060030160009054906101000a900460ff16151514610541576040517f08c379a000000000000000000000000000000000000000000000000000000000815260040161053890611138565b60405180910390fd5b600115156005600083815260200190815260200160002060030160009054906101000a905050506001600081548092919061057b90611413565b91905055507f9e46de17f1837f43306fba23c58bd603eac57f698a54d93d67c11a02e35dd1ae60056000838152602001908152602001600020826040516105c39291906111f8565b60405180910390a150565b60005481565b3373ffffffffffffffffffffffffffffffffffffffff166005600083815260200190815260200160002060010160009054906101000a900473ffffffffffffffffffffffffffffffffffffffff1673ffffffffffffffffffffffffffffffffffffffff1614610678576040517f08c379a000000000000000000000000000000000000000000000000000000000815260040161066f90611178565b60405180910390fd5b600015156005600083815260200190815260200160002060030160009054906101000a900460ff161515146106e2576040517f08c379a00000000000000000000000000000000000000000000000000000000081526004016106d990611138565b60405180910390fd5b600115156005600083815260200190815260200160002060030160009054906101000a9050505060006064600354600560008581526020019081526020016000206002015461073191906112d4565b61073b91906112a3565b9050806002600082825461074f919061124d565b925050819055506005600083815260200190815260200160002060000160009054906101000a900473ffffffffffffffffffffffffffffffffffffffff1673ffffffffffffffffffffffffffffffffffffffff166108fc8260056000868152602001908152602001600020600201546107c8919061132e565b9081150290604051600060405180830381858888f193505050501580156107f3573d6000803e3d6000fd5b506001600081548092919061080790611413565b91905055507fa5fa42a254202a2043808babf83c86748c634774685b7f2f2dd3f0aa08dd3b51600560008481526020019081526020016000208360405161084f9291906111f8565b60405180910390a15050565b600460009054906101000a900473ffffffffffffffffffffffffffffffffffffffff1673ffffffffffffffffffffffffffffffffffffffff163373ffffffffffffffffffffffffffffffffffffffff16146108eb576040517f08c379a00000000000000000000000000000000000000000000000000000000081526004016108e290611158565b60405180910390fd5b600073ffffffffffffffffffffffffffffffffffffffff168173ffffffffffffffffffffffffffffffffffffffff16141561095b576040517f08c379a000000000000000000000000000000000000000000000000000000000815260040161095290611118565b60405180910390fd5b6000600254116109a0576040517f08c379a0000000000000000000000000000000000000000000000000000000008152600401610997906111b8565b60405180910390fd5b8073ffffffffffffffffffffffffffffffffffffffff166108fc6002549081150290604051600060405180830381858888f193505050501580156109e8573d6000803e3d6000fd5b50600060028190555050565b60025481565b60035481565b803414610a42576040517f08c379a0000000000000000000000000000000000000000000000000000000008152600401610a39906111d8565b60405180910390fd5b8173ffffffffffffffffffffffffffffffffffffffff163373ffffffffffffffffffffffffffffffffffffffff1614610ab0576040517f08c379a0000000000000000000000000000000000000000000000000000000008152600401610aa790611198565b60405180910390fd5b600080815480929190610ac2906114a5565b919050555060016000815480929190610ada906114a5565b919050555060008054905060405180608001604052808573ffffffffffffffffffffffffffffffffffffffff1681526020018473ffffffffffffffffffffffffffffffffffffffff168152602001838152602001600015158152506005600083815260200190815260200160002060008201518160000160006101000a81548173ffffffffffffffffffffffffffffffffffffffff021916908373ffffffffffffffffffffffffffffffffffffffff16021790555060208201518160010160006101000a81548173ffffffffffffffffffffffffffffffffffffffff021916908373ffffffffffffffffffffffffffffffffffffffff1602179055506040820151816002015560608201518160030160006101000a81548160ff0219169083151502179055509050507f7344ceb63d8dbb89f70c452de3ad63c1fda7d6781683b6e6dd42a8159dbbc9ea6005600083815260200190815260200160002082604051610c469291906111f8565b60405180910390a150505050565b600460009054906101000a900473ffffffffffffffffffffffffffffffffffffffff1673ffffffffffffffffffffffffffffffffffffffff163373ffffffffffffffffffffffffffffffffffffffff1614610ce4576040517f08c379a0000000000000000000000000000000000000000000000000000000008152600401610cdb90611158565b60405180910390fd5b600115156005600084815260200190815260200160002060030160009054906101000a905050508073ffffffffffffffffffffffffffffffffffffffff166108fc60056000858152602001908152602001600020600201549081150290604051600060405180830381858888f19350505050158015610d67573d6000803e3d6000fd5b505050565b8060038190555033600460006101000a81548173ffffffffffffffffffffffffffffffffffffffff021916908373ffffffffffffffffffffffffffffffffffffffff16021790555050565b600081359050610dc68161173b565b92915050565b600081359050610ddb81611752565b92915050565b600081359050610df081611769565b92915050565b600060208284031215610e0c57610e0b61154c565b5b6000610e1a84828501610dcc565b91505092915050565b600080600060608486031215610e3c57610e3b61154c565b5b6000610e4a86828701610dcc565b9350506020610e5b86828701610db7565b9250506040610e6c86828701610de1565b9150509250925092565b600060208284031215610e8c57610e8b61154c565b5b6000610e9a84828501610de1565b91505092915050565b60008060408385031215610eba57610eb961154c565b5b6000610ec885828601610de1565b9250506020610ed985828601610dcc565b9150509250929050565b610eec816113cb565b82525050565b610efb816113cb565b82525050565b610f0a816113b9565b82525050565b610f19816113b9565b82525050565b610f28816113dd565b82525050565b610f37816113dd565b82525050565b6000610f4a60268361123c565b9150610f558261155e565b604082019050919050565b6000610f6d60408361123c565b9150610f78826115ad565b604082019050919050565b6000610f9060158361123c565b9150610f9b826115fc565b602082019050919050565b6000610fb3602d8361123c565b9150610fbe82611625565b604082019050919050565b6000610fd6602a8361123c565b9150610fe182611674565b604082019050919050565b6000610ff960258361123c565b9150611004826116c3565b604082019050919050565b600061101c601e8361123c565b915061102782611712565b602082019050919050565b60808201600080830154905061104781611457565b6110546000860182610ee3565b50600183015490506110658161143d565b6110726020860182610f01565b50600283015490506110838161148b565b61109060408601826110b5565b50600383015490506110a181611471565b6110ae6060860182610f1f565b5050505050565b6110be81611409565b82525050565b6110cd81611409565b82525050565b60006080820190506110e86000830187610ef2565b6110f56020830186610f10565b61110260408301856110c4565b61110f6060830184610f2e565b95945050505050565b6000602082019050818103600083015261113181610f3d565b9050919050565b6000602082019050818103600083015261115181610f60565b9050919050565b6000602082019050818103600083015261117181610f83565b9050919050565b6000602082019050818103600083015261119181610fa6565b9050919050565b600060208201905081810360008301526111b181610fc9565b9050919050565b600060208201905081810360008301526111d181610fec565b9050919050565b600060208201905081810360008301526111f18161100f565b9050919050565b600060a08201905061120d6000830185611032565b61121a60808301846110c4565b9392505050565b600060208201905061123660008301846110c4565b92915050565b600082825260208201905092915050565b600061125882611409565b915061126383611409565b9250827fffffffffffffffffffffffffffffffffffffffffffffffffffffffffffffffff03821115611298576112976114ee565b5b828201905092915050565b60006112ae82611409565b91506112b983611409565b9250826112c9576112c861151d565b5b828204905092915050565b60006112df82611409565b91506112ea83611409565b9250817fffffffffffffffffffffffffffffffffffffffffffffffffffffffffffffffff0483118215151615611323576113226114ee565b5b828202905092915050565b600061133982611409565b915061134483611409565b925082821015611357576113566114ee565b5b828203905092915050565b600073ffffffffffffffffffffffffffffffffffffffff82169050919050565b600073ffffffffffffffffffffffffffffffffffffffff82169050919050565b600060ff82169050919050565b6000819050919050565b60006113c4826113e9565b9050919050565b60006113d6826113e9565b9050919050565b60008115159050919050565b600073ffffffffffffffffffffffffffffffffffffffff82169050919050565b6000819050919050565b600061141e82611409565b91506000821415611432576114316114ee565b5b600182039050919050565b600061145061144b83611551565b611362565b9050919050565b600061146a61146583611551565b611382565b9050919050565b600061148461147f83611551565b6113a2565b9050919050565b600061149e61149983611551565b6113af565b9050919050565b60006114b082611409565b91507fffffffffffffffffffffffffffffffffffffffffffffffffffffffffffffffff8214156114e3576114e26114ee565b5b600182019050919050565b7f4e487b7100000000000000000000000000000000000000000000000000000000600052601160045260246000fd5b7f4e487b7100000000000000000000000000000000000000000000000000000000600052601260045260246000fd5b600080fd5b60008160001c9050919050565b7f43616e6e6f74207265636f76657220746f6b656e7320746f207468652030206160008201527f6464726573730000000000000000000000000000000000000000000000000000602082015250565b7f54686973206a6f622068617320616c7265616479206265656e20636f6d706c6560008201527f746520616e642066756e64732068617665206265656e20646973706572736564602082015250565b7f596f7520617265206e6f7420746865206f776e65720000000000000000000000600082015250565b7f596f7520646f206e6f7420686176652061636365737320746f2072656c65617360008201527f652074686573652066756e647300000000000000000000000000000000000000602082015250565b7f596f752063616e6e6f7420646f2074686973206f6e20736f6d656f6e6520656c60008201527f73657320626568616c6600000000000000000000000000000000000000000000602082015250565b7f546865726573206e6f2062616c616e636520666f7220796f7520746f2077697460008201527f6864726177000000000000000000000000000000000000000000000000000000602082015250565b7f506c656173652073656e642074686520636f727265637420616d6f756e740000600082015250565b611744816113b9565b811461174f57600080fd5b50565b61175b816113cb565b811461176657600080fd5b50565b61177281611409565b811461177d57600080fd5b5056fea264697066735822122036cadd06558123ae2f501599b34527b25c851607ec0343ee3b9960e3504d5add64736f6c63430008070033",
  "linkReferences": {},
  "deployedLinkReferences": {}
}