{
  "_format": "hh-sol-artifact-1",
  "contractName": "LancetV2",
  "sourceName": "contracts/lancetV2.sol",
  "abi": [
    {
      "anonymous": false,
      "inputs": [
        {
          "components": [
            {
              "internalType": "address payable",
              "name": "provider",
              "type": "address"
            },
            {
              "internalType": "address",
              "name": "buyer",
              "type": "address"
            },
            {
              "internalType": "uint256",
              "name": "amount",
              "type": "uint256"
            },
            {
              "internalType": "bool",
              "name": "complete",
              "type": "bool"
            }
          ],
          "indexed": false,
          "internalType": "struct LancetV2.Job",
          "name": "job",
          "type": "tuple"
        },
        {
          "indexed": false,
          "internalType": "uint256",
          "name": "jobID",
          "type": "uint256"
        }
      ],
      "name": "jobComplete",
      "type": "event"
    },
    {
      "anonymous": false,
      "inputs": [
        {
          "components": [
            {
              "internalType": "address payable",
              "name": "provider",
              "type": "address"
            },
            {
              "internalType": "address",
              "name": "buyer",
              "type": "address"
            },
            {
              "internalType": "uint256",
              "name": "amount",
              "type": "uint256"
            },
            {
              "internalType": "bool",
              "name": "complete",
              "type": "bool"
            }
          ],
          "indexed": false,
          "internalType": "struct LancetV2.Job",
          "name": "job",
          "type": "tuple"
        },
        {
          "indexed": false,
          "internalType": "uint256",
          "name": "jobID",
          "type": "uint256"
        }
      ],
      "name": "jobCreated",
      "type": "event"
    },
    {
      "inputs": [
        {
          "internalType": "uint256",
          "name": "jobID_",
          "type": "uint256"
        }
      ],
      "name": "cancelJob",
      "outputs": [],
      "stateMutability": "nonpayable",
      "type": "function"
    },
    {
      "inputs": [],
      "name": "contractBalance",
      "outputs": [
        {
          "internalType": "uint256",
          "name": "",
          "type": "uint256"
        }
      ],
      "stateMutability": "view",
      "type": "function"
    },
    {
      "inputs": [
        {
          "internalType": "address payable",
          "name": "provider_",
          "type": "address"
        },
        {
          "internalType": "address",
          "name": "buyer_",
          "type": "address"
        },
        {
          "internalType": "uint256",
          "name": "amount_",
          "type": "uint256"
        }
      ],
      "name": "createJob",
      "outputs": [],
      "stateMutability": "payable",
      "type": "function"
    },
    {
      "inputs": [
        {
          "internalType": "uint256",
          "name": "jobID_",
          "type": "uint256"
        },
        {
          "internalType": "address payable",
          "name": "emergancyReceiver_",
          "type": "address"
        }
      ],
      "name": "emergancyRelease",
      "outputs": [],
      "stateMutability": "nonpayable",
      "type": "function"
    },
    {
      "inputs": [
        {
          "internalType": "uint256",
          "name": "s_platformFee_",
          "type": "uint256"
        }
      ],
      "name": "initialize",
      "outputs": [],
      "stateMutability": "nonpayable",
      "type": "function"
    },
    {
      "inputs": [
        {
          "internalType": "uint256",
          "name": "",
          "type": "uint256"
        }
      ],
      "name": "jobs",
      "outputs": [
        {
          "internalType": "address payable",
          "name": "provider",
          "type": "address"
        },
        {
          "internalType": "address",
          "name": "buyer",
          "type": "address"
        },
        {
          "internalType": "uint256",
          "name": "amount",
          "type": "uint256"
        },
        {
          "internalType": "bool",
          "name": "complete",
          "type": "bool"
        }
      ],
      "stateMutability": "view",
      "type": "function"
    },
    {
      "inputs": [
        {
          "internalType": "uint256",
          "name": "jobID_",
          "type": "uint256"
        }
      ],
      "name": "releaseFunds",
      "outputs": [],
      "stateMutability": "nonpayable",
      "type": "function"
    },
    {
      "inputs": [],
      "name": "runningJobs",
      "outputs": [
        {
          "internalType": "uint256",
          "name": "",
          "type": "uint256"
        }
      ],
      "stateMutability": "view",
      "type": "function"
    },
    {
      "inputs": [],
      "name": "s_jobID",
      "outputs": [
        {
          "internalType": "uint256",
          "name": "",
          "type": "uint256"
        }
      ],
      "stateMutability": "view",
      "type": "function"
    },
    {
      "inputs": [],
      "name": "s_platformFee",
      "outputs": [
        {
          "internalType": "uint256",
          "name": "",
          "type": "uint256"
        }
      ],
      "stateMutability": "view",
      "type": "function"
    },
    {
      "inputs": [
        {
          "internalType": "uint256",
          "name": "platformFee_",
          "type": "uint256"
        }
      ],
      "name": "setPlatformFee",
      "outputs": [],
      "stateMutability": "nonpayable",
      "type": "function"
    },
    {
      "inputs": [],
      "name": "upgradeTestVal",
      "outputs": [
        {
          "internalType": "bool",
          "name": "",
          "type": "bool"
        }
      ],
      "stateMutability": "view",
      "type": "function"
    },
    {
      "inputs": [
        {
          "internalType": "address payable",
          "name": "to",
          "type": "address"
        }
      ],
      "name": "withdraw",
      "outputs": [],
      "stateMutability": "nonpayable",
      "type": "function"
    }
  ],
  "bytecode": "0x608060405234801561001057600080fd5b506116d1806100206000396000f3fe6080604052600436106100c25760003560e01c806351cff8d91161007f5780639d0016fe116100595780639d0016fe14610257578063bf0077ef14610282578063dd809f7a1461029e578063fe4b84df146102c7576100c2565b806351cff8d9146101d85780638b7afe2e146102015780639ac45bd91461022c576100c2565b806312e8e2c3146100c7578063180aedf3146100f05780631db2e2bc146101305780631dffa3dc1461015b57806347602ae5146101845780634d68282f146101af575b600080fd5b3480156100d357600080fd5b506100ee60048036038101906100e99190610de2565b6102f0565b005b3480156100fc57600080fd5b5061011760048036038101906101129190610de2565b610354565b604051610127949392919061101c565b60405180910390f35b34801561013c57600080fd5b506101456103d1565b6040516101529190611165565b60405180910390f35b34801561016757600080fd5b50610182600480360381019061017d9190610de2565b6103d7565b005b34801561019057600080fd5b50610199610593565b6040516101a69190611165565b60405180910390f35b3480156101bb57600080fd5b506101d660048036038101906101d19190610de2565b610599565b005b3480156101e457600080fd5b506101ff60048036038101906101fa9190610d62565b610820565b005b34801561020d57600080fd5b50610216610983565b6040516102239190611165565b60405180910390f35b34801561023857600080fd5b50610241610989565b60405161024e9190611165565b60405180910390f35b34801561026357600080fd5b5061026c61098f565b6040516102799190611061565b60405180910390f35b61029c60048036038101906102979190610d8f565b6109a2565b005b3480156102aa57600080fd5b506102c560048036038101906102c09190610e0f565b610bf6565b005b3480156102d357600080fd5b506102ee60048036038101906102e99190610de2565b610cd8565b005b600460009054906101000a900473ffffffffffffffffffffffffffffffffffffffff1673ffffffffffffffffffffffffffffffffffffffff163373ffffffffffffffffffffffffffffffffffffffff161461034a57600080fd5b8060038190555050565b60056020528060005260406000206000915090508060000160009054906101000a900473ffffffffffffffffffffffffffffffffffffffff16908060010160009054906101000a900473ffffffffffffffffffffffffffffffffffffffff16908060020154908060030160009054906101000a900460ff16905084565b60015481565b3373ffffffffffffffffffffffffffffffffffffffff166005600083815260200190815260200160002060010160009054906101000a900473ffffffffffffffffffffffffffffffffffffffff1673ffffffffffffffffffffffffffffffffffffffff1614806104a857503373ffffffffffffffffffffffffffffffffffffffff166005600083815260200190815260200160002060000160009054906101000a900473ffffffffffffffffffffffffffffffffffffffff1673ffffffffffffffffffffffffffffffffffffffff16145b6104e7576040517f08c379a00000000000000000000000000000000000000000000000000000000081526004016104de906110bc565b60405180910390fd5b600015156005600083815260200190815260200160002060030160009054906101000a900460ff16151514610551576040517f08c379a00000000000000000000000000000000000000000000000000000000081526004016105489061109c565b60405180910390fd5b600115156005600083815260200190815260200160002060030160009054906101000a905050506001600081548092919061058b90611357565b919050555050565b60005481565b3373ffffffffffffffffffffffffffffffffffffffff166005600083815260200190815260200160002060010160009054906101000a900473ffffffffffffffffffffffffffffffffffffffff1673ffffffffffffffffffffffffffffffffffffffff161461063d576040517f08c379a0000000000000000000000000000000000000000000000000000000008152600401610634906110bc565b60405180910390fd5b600015156005600083815260200190815260200160002060030160009054906101000a900460ff161515146106a7576040517f08c379a000000000000000000000000000000000000000000000000000000000815260040161069e9061109c565b60405180910390fd5b600115156005600083815260200190815260200160002060030160009054906101000a905050506000606460035460056000858152602001908152602001600020600201546106f69190611218565b61070091906111e7565b905080600260008282546107149190611191565b925050819055506005600083815260200190815260200160002060000160009054906101000a900473ffffffffffffffffffffffffffffffffffffffff1673ffffffffffffffffffffffffffffffffffffffff166108fc82600560008681526020019081526020016000206002015461078d9190611272565b9081150290604051600060405180830381858888f193505050501580156107b8573d6000803e3d6000fd5b50600160008154809291906107cc90611357565b91905055507f0d180833514f99c897568990b47521857faae2c45b9d847024b155230e459b34600560008481526020019081526020016000208360405161081492919061113c565b60405180910390a15050565b600460009054906101000a900473ffffffffffffffffffffffffffffffffffffffff1673ffffffffffffffffffffffffffffffffffffffff163373ffffffffffffffffffffffffffffffffffffffff161461087a57600080fd5b600073ffffffffffffffffffffffffffffffffffffffff168173ffffffffffffffffffffffffffffffffffffffff1614156108ea576040517f08c379a00000000000000000000000000000000000000000000000000000000081526004016108e19061107c565b60405180910390fd5b60006002541161092f576040517f08c379a0000000000000000000000000000000000000000000000000000000008152600401610926906110fc565b60405180910390fd5b8073ffffffffffffffffffffffffffffffffffffffff166108fc6002549081150290604051600060405180830381858888f19350505050158015610977573d6000803e3d6000fd5b50600060028190555050565b60025481565b60035481565b600660009054906101000a900460ff1681565b8034146109e4576040517f08c379a00000000000000000000000000000000000000000000000000000000081526004016109db9061111c565b60405180910390fd5b8173ffffffffffffffffffffffffffffffffffffffff163373ffffffffffffffffffffffffffffffffffffffff1614610a52576040517f08c379a0000000000000000000000000000000000000000000000000000000008152600401610a49906110dc565b60405180910390fd5b600080815480929190610a64906113e9565b919050555060016000815480929190610a7c906113e9565b919050555060008054905060405180608001604052808573ffffffffffffffffffffffffffffffffffffffff1681526020018473ffffffffffffffffffffffffffffffffffffffff168152602001838152602001600015158152506005600083815260200190815260200160002060008201518160000160006101000a81548173ffffffffffffffffffffffffffffffffffffffff021916908373ffffffffffffffffffffffffffffffffffffffff16021790555060208201518160010160006101000a81548173ffffffffffffffffffffffffffffffffffffffff021916908373ffffffffffffffffffffffffffffffffffffffff1602179055506040820151816002015560608201518160030160006101000a81548160ff0219169083151502179055509050507f7e88b417310877db26ee76b836709f8d5a357e27d5a5983ded1c8b9819ac7c0f6005600083815260200190815260200160002082604051610be892919061113c565b60405180910390a150505050565b600460009054906101000a900473ffffffffffffffffffffffffffffffffffffffff1673ffffffffffffffffffffffffffffffffffffffff163373ffffffffffffffffffffffffffffffffffffffff1614610c5057600080fd5b600115156005600084815260200190815260200160002060030160009054906101000a905050508073ffffffffffffffffffffffffffffffffffffffff166108fc60056000858152602001908152602001600020600201549081150290604051600060405180830381858888f19350505050158015610cd3573d6000803e3d6000fd5b505050565b8060038190555033600460006101000a81548173ffffffffffffffffffffffffffffffffffffffff021916908373ffffffffffffffffffffffffffffffffffffffff16021790555050565b600081359050610d3281611656565b92915050565b600081359050610d478161166d565b92915050565b600081359050610d5c81611684565b92915050565b600060208284031215610d7857610d77611490565b5b6000610d8684828501610d38565b91505092915050565b600080600060608486031215610da857610da7611490565b5b6000610db686828701610d38565b9350506020610dc786828701610d23565b9250506040610dd886828701610d4d565b9150509250925092565b600060208284031215610df857610df7611490565b5b6000610e0684828501610d4d565b91505092915050565b60008060408385031215610e2657610e25611490565b5b6000610e3485828601610d4d565b9250506020610e4585828601610d38565b9150509250929050565b610e588161130f565b82525050565b610e678161130f565b82525050565b610e76816112fd565b82525050565b610e85816112fd565b82525050565b610e9481611321565b82525050565b610ea381611321565b82525050565b6000610eb6602683611180565b9150610ec1826114a2565b604082019050919050565b6000610ed9604083611180565b9150610ee4826114f1565b604082019050919050565b6000610efc602d83611180565b9150610f0782611540565b604082019050919050565b6000610f1f602a83611180565b9150610f2a8261158f565b604082019050919050565b6000610f42602583611180565b9150610f4d826115de565b604082019050919050565b6000610f65601e83611180565b9150610f708261162d565b602082019050919050565b608082016000808301549050610f908161139b565b610f9d6000860182610e4f565b5060018301549050610fae81611381565b610fbb6020860182610e6d565b5060028301549050610fcc816113cf565b610fd96040860182610ffe565b5060038301549050610fea816113b5565b610ff76060860182610e8b565b5050505050565b6110078161134d565b82525050565b6110168161134d565b82525050565b60006080820190506110316000830187610e5e565b61103e6020830186610e7c565b61104b604083018561100d565b6110586060830184610e9a565b95945050505050565b60006020820190506110766000830184610e9a565b92915050565b6000602082019050818103600083015261109581610ea9565b9050919050565b600060208201905081810360008301526110b581610ecc565b9050919050565b600060208201905081810360008301526110d581610eef565b9050919050565b600060208201905081810360008301526110f581610f12565b9050919050565b6000602082019050818103600083015261111581610f35565b9050919050565b6000602082019050818103600083015261113581610f58565b9050919050565b600060a0820190506111516000830185610f7b565b61115e608083018461100d565b9392505050565b600060208201905061117a600083018461100d565b92915050565b600082825260208201905092915050565b600061119c8261134d565b91506111a78361134d565b9250827fffffffffffffffffffffffffffffffffffffffffffffffffffffffffffffffff038211156111dc576111db611432565b5b828201905092915050565b60006111f28261134d565b91506111fd8361134d565b92508261120d5761120c611461565b5b828204905092915050565b60006112238261134d565b915061122e8361134d565b9250817fffffffffffffffffffffffffffffffffffffffffffffffffffffffffffffffff048311821515161561126757611266611432565b5b828202905092915050565b600061127d8261134d565b91506112888361134d565b92508282101561129b5761129a611432565b5b828203905092915050565b600073ffffffffffffffffffffffffffffffffffffffff82169050919050565b600073ffffffffffffffffffffffffffffffffffffffff82169050919050565b600060ff82169050919050565b6000819050919050565b60006113088261132d565b9050919050565b600061131a8261132d565b9050919050565b60008115159050919050565b600073ffffffffffffffffffffffffffffffffffffffff82169050919050565b6000819050919050565b60006113628261134d565b9150600082141561137657611375611432565b5b600182039050919050565b600061139461138f83611495565b6112a6565b9050919050565b60006113ae6113a983611495565b6112c6565b9050919050565b60006113c86113c383611495565b6112e6565b9050919050565b60006113e26113dd83611495565b6112f3565b9050919050565b60006113f48261134d565b91507fffffffffffffffffffffffffffffffffffffffffffffffffffffffffffffffff82141561142757611426611432565b5b600182019050919050565b7f4e487b7100000000000000000000000000000000000000000000000000000000600052601160045260246000fd5b7f4e487b7100000000000000000000000000000000000000000000000000000000600052601260045260246000fd5b600080fd5b60008160001c9050919050565b7f43616e6e6f74207265636f76657220746f6b656e7320746f207468652030206160008201527f6464726573730000000000000000000000000000000000000000000000000000602082015250565b7f54686973206a6f622068617320616c7265616479206265656e20636f6d706c6560008201527f746520616e642066756e64732068617665206265656e20646973706572736564602082015250565b7f596f7520646f206e6f7420686176652061636365737320746f2072656c65617360008201527f652074686573652066756e647300000000000000000000000000000000000000602082015250565b7f596f752063616e6e6f7420646f2074686973206f6e20736f6d656f6e6520656c60008201527f73657320626568616c6600000000000000000000000000000000000000000000602082015250565b7f546865726573206e6f2062616c616e636520666f7220796f7520746f2077697460008201527f6864726177000000000000000000000000000000000000000000000000000000602082015250565b7f506c656173652073656e642074686520636f727265637420616d6f756e740000600082015250565b61165f816112fd565b811461166a57600080fd5b50565b6116768161130f565b811461168157600080fd5b50565b61168d8161134d565b811461169857600080fd5b5056fea26469706673582212204b3b724bae4df903ebeb77a726b25f9581ff998f602c76238c693ee90ed7a4b664736f6c63430008070033",
  "linkReferences": {},
  "deployedLinkReferences": {}
}